:020000040800F2
:10000000800400200101000887160008D7150008A9
:10001000851600080F0200085D1A000800000000A5
:10002000000000000000000000000000AB16000807
:10003000BD02000800000000A9160008AD16000867
:100040001B0100081B0100081B0100081B01000820
:100050001B0100081B0100081B0100081B01000810
:100060001B0100081B0100081B0100081B01000800
:100070001B0100081B0100081B0100081B010008F0
:100080001B0100081B0100081B0100081B010008E0
:10009000511A00081B0100081B0100081B01000881
:1000A0001B0100081B0100081B0100081B010008C0
:1000B0001B0100081B0100081B0100081B010008B0
:1000C0001B0100081B0100081B0100081B010008A0
:1000D0001B010008451A00081B0100081B0100084D
:1000E0001B0100081B0100081B010008DFF80CD0F1
:1000F00000F06CF800480047791D000880040020DB
:100100000648804706480047FEE7FEE7FEE7FEE7B1
:10011000FEE7FEE7FEE7FEE7FEE7FEE70117000861
:10012000ED000008202A04DB203A21FA02F0002129
:10013000704721FA02F3D040C2F1200291400843F7
:1001400019467047D2B201E000F8012B491EFBD2DC
:1001500070470022F6E710B513460A4604461946D2
:10016000FFF7F0FF204610BD2DE9F05F05460020A7
:1001700092469B4688460646814640241BE0284618
:10018000414647462246FFF7CDFF53465A46C01A1E
:10019000914110D311461846224600F029F82D1A35
:1001A00067EB01084F4622460120002100F020F8AD
:1001B00017EB00094E41201EA4F10104DFDC484684
:1001C00031462A464346BDE8F09F0000064C074DE5
:1001D00006E0E06840F0010394E807009847103417
:1001E000AC42F6D3FFF786FFD81D0008F81D0008C3
:1001F000202A04DB203A00FA02F1002070479140E7
:10020000C2F1200320FA03F3194390407047FEE740
:1002100000B58BB0002005900190009002900390F3
:10022000049006900120079008900E2009906946DE
:100230000A4800F0BBF808B100F041F80221074875
:1002400000F03EF808B100F03AF8044800F0BAFBBC
:10025000002801D000F033F80BB000BD14000020DE
:1002600070B5002488B01E46254650B10420CDE963
:10027000011000BFCDE903528DF814504FF6FE7502
:1002800006E002950091F5E7641CA4B2AC4210D8D8
:10029000094800F077F90028F6D04FF4FA7000F022
:1002A00011FC06AB32466946034800F01BF80028F3
:1002B00000D0012008B070BD1400002070477047C6
:1002C00090F82020012A07D0022A05D0416A41F483
:1002D0008021416201207047006842690A434261FF
:1002E00000207047F0B590F820500468A468012DF4
:1002F00005D0022D03D0416A41F4802153E014F06F
:10030000406F01D1E5004BD5C4F30164022C03D941
:10031000416A41F4000146E00125A5401D608D6859
:100320004FF4C0739DB1CE6835434E6845EAC605AB
:10033000066803EB0417F5514FF4C275076805EB27
:1003400004150E697E51097D012905D009E00E884A
:10035000CD6845EA4655EBE701684E5946F480768C
:100360004E511179D2F805504FF4C67641EA052571
:10037000016806EB04168D511178D2F801204FF474
:10038000C47541EA0221026805EB04155151006869
:1003900003EB0411425842F0010242500020F0BD2C
:1003A000416A41F4001141620120F0BD10B590F89E
:1003B00020300268012B07D0022B05D0416A41F49E
:1003C00080214162012010BDD2F8000240F00100FE
:1003D000C2F80002087D00F01F0301209840D2F807
:1003E0001C328343C2F81C32CB69B3B9D2F80C3249
:1003F0008343C2F80C328C894B6864F31F434C6909
:1004000002EBC404C4F840320C890B6864F31F4348
:100410004C6902EBC404C4F84432CB69012B16D1F9
:10042000D2F80C320343C2F80C320C884B6864F3E8
:100430001F434C6902EBC404C4F840320C89CB68FA
:1004400064F31F434C6902EBC404C4F844328B6963
:10045000002BD2F804320FD053EA0003C2F8043262
:100460000B69002BD2F8143208D00343C2F81432BF
:10047000096A012904D008E08343EFE78343F5E7E5
:10048000D2F81C120143C2F81C12D2F8000220F06C
:100490000100C2F80002002010BD704730B590F88E
:1004A0002040012C05D0022C03D0416A41F4802168
:1004B0005DE00468002955D02469A40754D04FF4A6
:1004C000D874056804EB01142D5915F004059560E6
:1004D00005682D594ED0ED08556005682C59C4F3B8
:1004E0004004D4604FF4DA74056804EB01142D590C
:1004F00005F00F05156105682D59C5F307259561B0
:1005000005682C59240C54614FF4DC72046802EB2A
:100510000112A4581C700468A458240A5C70046872
:10052000A458240C9C700468A258120EDA704FF480
:10053000DE72046802EB0112A4581C710468A4580E
:10054000240A5C710468A458240C9C710468A258A5
:10055000120EDA71006881B1016941F02001016178
:10056000002030BDE468A8E7416A41F4001141620F
:10057000012030BD6D0D1560AFE7C16841F020016D
:10058000C160EDE70246002092F82010012901D059
:1005900002290CD111688A68520100D501208A68AD
:1005A000120100D5401C8968C90000D5401C704765
:1005B0002DE9F05F0546006800244669D0F80490F4
:1005C0008768D0F80CB0D0F810A0D0F81880F107E8
:1005D00048D0F90714D001218160B80703D5284617
:1005E00000F01DFA0CE0780702D54FF4006407E034
:1005F000380702D54FF4805402E0284600F00EFA86
:10060000F80516D529684FF480708860B80503D5C1
:10061000284600F006FA0CE0780502D544F40054B0
:1006200007E0380502D544F4804402E0284600F093
:10063000F7F9F80316D529684FF480308860B803BD
:1006400003D5284600F0EFF90CE0780302D544F416
:10065000004407E0380302D544F4803402E0284621
:1006600000F0E0F9300707D55FEACB6004D52968D0
:10067000102044F40074C86070074FF0080707D5D5
:100680005FEA0B7004D52868C760284600F05AF965
:10069000B00706D52868C068800702D0284600F059
:1006A00053F9700607D55FEACA6004D5296810209F
:1006B00044F480640861B00607D55FEA0A7004D587
:1006C00028680761284600F079F9F00606D5286801
:1006D0000069800702D0284600F071F9B00308D500
:1006E0005FEAC96005D5296810204860284600F0F7
:1006F00067F9F00307D55FEA097004D528684760F9
:10070000284600F091F9300446D55FEA497040D59B
:10071000F00504D55FEAC87001D044F00104B005CB
:1007200004D55FEA887001D544F00204700504D551
:100730005FEA487001D544F00404300529D518F06B
:10074000700F26D008F07000402815D006DC102865
:1007500009D020280AD0302816D10AE050280ED01F
:10076000602811D10EE044F008040DE044F01004BC
:100770000AE044F0200407E044F0400404E044F0C0
:10078000800401E044F480742868816921F07001DC
:100790008161296804204860002C05D0686A2043E4
:1007A00068622846FFF779FEBDE8F09F70B5040047
:1007B00003D094F8200010B104E0012070BD204661
:1007C00000F082F82068016821F00201016000F069
:1007D00069FA0546052604E000F064FA401B0A2881
:1007E00011D8206840688007F6D42068016841F07D
:1007F0000101016000F056FA05460BE000F052FAE4
:10080000401B0A2806D9606A40F40030606284F810
:100810002060D2E720684068C007EFD0207E012822
:10082000206801683DD021F080010160607E0128D0
:100830002068016838D021F040010160A07E0128C5
:100840002068016833D021F020010160E07E01289A
:10085000206801682ED041F010010160207F01283E
:100860002068016829D021F008010160607F01281B
:100870002068016824D021F004010160D4E902015C
:100880000843D4E90412114308436168491E084330
:100890002168C86100206062012084F820000020E7
:1008A00070BD41F08001C0E741F04001C5E741F073
:1008B0002001CAE721F01001CFE741F00801D4E799
:1008C00041F00401D9E7000010B586B00021009185
:1008D0000191029103910068174988422AD1174873
:1008E000C16941F00071C161C16901F000710491F9
:1008F000816941F0040181618069114C00F00400BC
:1009000004904FF4006000906946204600F0ECF837
:10091000A014009002200190032003906946204615
:1009200000F0E2F800221146142000F025FA14200D
:1009300000F016FA06B010BD00640040001002403E
:10094000000801407047000030B589B007AB6A4627
:100950000021FFF7A3FD002818D10498C4B2029823
:1009600008B1019900E0009909A001F079F8214649
:1009700009A001F075F8002407AD21462A5D0AA000
:1009800001F06EF8641CE4B2082CF6D309B030BD57
:1009900069643A25780D0A00446174615F4C656EA4
:1009A0003A25640D0A00000052785F446174615B6F
:1009B00025645D3D25780D0A0000000070477047F2
:1009C0007047000070B5044690F82000012804D05C
:1009D000606A40F40020606218E0022084F8200081
:1009E0002068016821F00101016000F05BF9054613
:1009F0000EE000BF00F056F9401B0A2808D9606AD3
:100A000040F400306062052084F82000012070BDB1
:100A100020684068C007EDD1606270BD70477047C4
:100A200070477047704770477047000010B590F8E6
:100A300021100024022903D00421816301243DE018
:100A400001680A6822F00E020A6001680A6822F052
:100A500001020A601A4A0168914201D1012121E094
:100A6000174A1432914201D110211BE0144A283256
:100A7000914201D1891515E0114A3C32914201D1D0
:100A800089140FE00E4A5032914202D14FF4803166
:100A900008E00B4A6432914202D14FF4801101E028
:100AA0004FF08071064A083A5160012180F8211008
:100AB000002180F82010416B01B18847204610BD0D
:100AC0000800024070B5044600F0ECF80546601CD2
:100AD00002D004480078044400F0E4F8401BA0422F
:100AE000FAD370BD000000202DE9F84FDFF890A187
:100AF00000220AF1040B144601274FF00F090BF1F5
:100B0000040E00BF0B6807FA04F52B40AB4274D10A
:100B1000DFF870C14E68A6EB0C0866452BD00DDCE3
:100B2000032E34D005DC36B3012E19D0022E2FD17E
:100B30001BE0112E16D0122E2AD119E0B8F5881F0D
:100B400019D006DCB8F5803F15D0B8F5801F1FD14D
:100B500011E0B8F5001F0ED0B8F5041F18D10AE057
:100B6000CA6815E0CA68121D12E0CA6808320FE0B0
:100B7000CA680C320CE08A682AB1012A4FF00802D8
:100B800003D0456104E0042202E0056100E0002298
:100B9000FF2B01D8064601E000F104064FEA840568
:100BA00001D9A5F12005D6F800C009FA05F82CEA0C
:100BB000080C02FA05F54CEA050CC6F800C04D68B1
:100BC000ED0057D5304DAE6946F00106AE61AD6916
:100BD00024F0030605F0010500952C4D06EB050CED
:100BE000DCF80850A6074FEA167809FA08F6B5436C
:100BF000274EB04202D1002610E03BE0254EB04225
:100C000001D101260AE0244EB04201D1022605E0BE
:100C1000224EB04201D1032600E0042606FA08F66F
:100C20002E43CCF808604D68DAF80060ED035546B5
:100C300001D51E4300E09E432E604D68DBF8006046
:100C4000AD035D4601D51E4300E09E432E604D6816
:100C5000DEF80060ED02754601D51E4300E09E43BC
:100C60002E604D68AD020E4D2E6801D51E4300E08A
:100C70009E432E60641C102CFFF444AFBDE8F88F37
:100C8000000401400000111000100240000001406B
:100C900000080140000C0140001001400014014018
:100CA0000C040140014880687047000000000020EB
:100CB000024881680278114481607047000000207A
:100CC000074810B5016841F010010160032000F0F1
:100CD00073F8002000F006F800F024F8002010BDA2
:100CE0000020024070B50D4D04464FF47A7128780B
:100CF000B1FBF0F00A490968B1FBF0F000F0FCFA32
:100D000048B9102C07D200222146501E00F034F8BA
:100D100000206C6070BD012070BD0000000000204C
:100D20000C0000200C4808B5816941F00101816187
:100D3000816901F001010091C16941F08051C161F7
:100D4000C06900F0805000900448416821F0E061E3
:100D500041F00071416008BD0010024000000140F8
:100D600000F01F02012191404009800000F1E020C5
:100D7000C0F8001170470000F0B40E4B1B680C4621
:100D8000C3F30223C3F10705042D00D90425191D5F
:100D9000072901D2002300E0DB1E012606FA05F137
:100DA000491E214099409E40761E16403143F0BCBA
:100DB00000F06ABC0CED00E0064900F0070208688C
:100DC0004FF6FF03184040EA0220034A1043086030
:100DD000704700000CED00E00000FA052DE9F04737
:100DE000DFF8548105460E46D8F8000000F00700F1
:100DF000B0420CD2D8F8001021F007013143C8F8F6
:100E00000010D8F8000000F00700B0426FD1286849
:100E10004A4C810712D5400703D5606840F4E06072
:100E200060602878000703D5606840F46050606017
:100E30006068A96820F0F000084360602878C00767
:100E400044D06868012816D02168022816D0890786
:100E500000294CDA616821F0030101436160FFF76A
:100E600021FF6968074641F2883001290ED0022926
:100E7000814618D026E021688903E9E78901E7E780
:100E8000FFF710FFC11B494501D918E08146606892
:100E9000C0F381000128F3D118E000BFFFF702FF83
:100EA000C11B49450BD86068C0F381000228F5D109
:100EB0000CE000BFFFF7F6FEC11B494502D9032035
:100EC000BDE8F087606810F00C0FF3D1D8F800107F
:100ED000404601F00701B1420BD9016821F007013A
:100EE00031430160006800F00700B04201D00120EA
:100EF000E6E72878400705D56068E96820F4E060F7
:100F0000084360602878000706D56068296920F4E6
:100F1000605040EAC100606000F036F86168084A3D
:100F2000C1F30311515CC840064908600020FFF777
:100F3000D9FE0020C4E7000000200240001002405B
:100F4000C01D00080C0000200448054900684968DD
:100F5000044AC1F30221515CC84070470C000020D4
:100F600000100240D01D0008044805490068496887
:100F7000044AC1F3C221515CC84070470C000020F4
:100F800000100240D01D000812A185B00FC98DE8E5
:100F90000F0014A0144A006804905168134801F02F
:100FA0000C03042B10D0082B0ED1C1F38343C903CB
:100FB0001DF803000AD5516804AAC1F34041515CF1
:100FC0000A4A5043B0FBF1F005B070470849484366
:100FD000FAE7000002030405060708090A0B0C0DD6
:100FE0000E0F1010010200000010024000127A00E3
:100FF00000093D002DE9F84F04460078B94DC007BF
:1010000048D06868C0F38100012807D06868C0F341
:101010008100022809D16868C00306D528688003CA
:1010200038D5606800286FD034E06068B0F5803F44
:101030000BD010B1B0F5A02F11D0286820F480306B
:101040002860286820F4802002E0286840F480307E
:101050002860606888B1FFF725FE064609E0286829
:1010600040F480202860F0E7FFF71CFE801B642816
:1010700075D828688003F7D50CE0FFF713FE064605
:1010800005E000BFFFF70EFE801B6428F0D828683B
:101090008003F7D42078944E80074FF001094FF079
:1010A00000083BD5686810F00C0F07D06868C0F3E3
:1010B0008100022809D16868C00306D42868800727
:1010C00014D5206901281FD110E02069B0B1C6F8FD
:1010D0000090FFF7E7FD074605E000BFFFF7E2FDE0
:1010E000C01B0228C4D828688007F7D52868616922
:1010F00020F0F80040EAC10028600FE0C6F8008048
:10110000FFF7D0FD074606E0E9E000BFFFF7CAFDA4
:10111000C01B022823D828688007F7D4207800074E
:101120002CD57248A169D9B1C0F80090FFF7BAFD7B
:10113000074604E0FFF7B6FDC01B02280FD8686A17
:101140008007F7D56A484FF4FA510068B0FBF1F018
:10115000009000BF0098411E0091FAD20EE080E09E
:10116000C0F80080FFF79EFD074604E0FFF79AFDF8
:10117000C01B022875D8686A8007F7D4207840071A
:1011800060D5E8690027C00008D4E86940F08050C5
:10119000E861E869012700F0805000905548016837
:1011A000C90513D40168834641F480710160FFF7DB
:1011B00079FD824606E000BFFFF774FDA0EB0A0050
:1011C00064284ED8DBF80000C005F5D5E06801289A
:1011D0000AD008B1052813D0286A20F0010028623F
:1011E000286A20F0040002E0286A40F0010028622A
:1011F000E06841F2883B98B1FFF754FD82460BE06E
:10120000286A40F004002862EEE700BFFFF74AFDBD
:10121000A0EB0A0159455AD8286A8007F6D50CE098
:10122000FFF740FD824605E0FFF73CFDA0EB0A0119
:1012300059454CD8286A8007F6D41FB1E86920F0D8
:101240008050E861E06988B36968C1F381010229CF
:1012500045D00228C6F8608004D0FFF723FD04467D
:1012600038E034E0FFF71EFD074604E0FFF71AFD03
:10127000C01B02282BD828688001F7D4206AB0F55B
:10128000803F05D16868A16820F400300843686099
:10129000D4E908010843696821F4741108436860BF
:1012A000C6F86090FFF7FEFC044606E015E000BFBC
:1012B000FFF7F8FC001B022809D828688001F7D541
:1012C0000BE000BFFFF7EEFC001B022802D9032051
:1012D000BDE8F88F28688001F4D40020F8E70120E9
:1012E000F6E7000000100240000042428004424243
:1012F0000C0000200070004010B5401EB0F1807F4F
:1013000001D3012010BD4FF0E02460610F21601770
:1013100000F0BAF90020A06107202061002010BD74
:101320007047000070B5026804461068D1685369C0
:1013300010F00F0F50D003F0010501F49076354303
:101340005DD0C20705D0CA0503D5E26B42F00102A9
:10135000E263420705D5DA0703D0E26B42F00202EE
:10136000E263820705D5DA0703D0E26B42F004029C
:10137000E263020705D5DA0703D0E26B42F0080208
:10138000E263E26B002A33D0800604D5880602D5DA
:10139000204600F0EFF920684069E16BC0F380104F
:1013A000090700D428B3204600F0D6F92068416927
:1013B00049061AD5416921F040014161606BA0B135
:1013C0001B494163606BFFF731FB002810D0606B55
:1013D000416BBDE870400847830610D58B060ED5DB
:1013E0002046BDE8704000F0C5B92046FFF798FFE1
:1013F00070BD2046FFF794FF0020E06370BD030638
:1014000006D50B0604D52046BDE8704000F0B6BAFC
:101410004006F3D54806F1D5D168204621F04001B9
:10142000D160202184F8391000F0D4F870BD00009C
:101430004917000870B5040004D094F8390000255D
:1014400010B106E0012070BD84F83850204600F04D
:1014500023F8242084F839002068C16821F4005161
:10146000C160204600F0D2F92068016921F4904162
:1014700001612068416921F02A0141612068C16849
:1014800041F40051C160E563202084F8390084F8FC
:101490003A00002070BD000030B585B000240094F3
:1014A0000194029403940068184988422CD118488A
:1014B000816941F480418161816901F48041049135
:1014C000816941F0040181618069124D00F00400DE
:1014D00004904FF4007000900220019003200390CC
:1014E00069462846FFF700FB2815CDE90004694648
:1014F00028460294FFF7F8FA002201212520FFF781
:101500003BFC2520FFF72CFC05B030BD0038014026
:10151000001002400008014070472DE9F8430446DE
:1015200090F839001F4616460D46202850D1A5B127
:101530009EB194F8380001284AD0012084F8380080
:101540004FF00008C4F83C80212084F83900FFF7F0
:10155000A9FBA6848146E68426E00120BDE8F88345
:10156000E08C401EE084A0684B46B0F5805F4FF0F1
:1015700000024FF080012046009703D000F02FFAC0
:10158000E8B90DE000F02BFAC8B928882168C0F34B
:1015900008004860206908B16D1C05E0AD1C03E03F
:1015A000216815F8010B4860E08C0028D8D14B4623
:1015B000002240212046009700F011FA08B10320D4
:1015C000CCE7202084F8390084F838800020C5E773
:1015D0000220C3E77047FEE7104810B50E490160CE
:1015E0000C2141604FF08041816000214FF40032B6
:1015F000C0E90312D2004261017641768176C1765C
:1016000001774177FFF7D2F8002803D0BDE81040FA
:10161000FEF755BE10BD000000640040140000201D
:10162000094808B5816941F020018161816901F0B3
:1016300020010091816941F004018161806900F01D
:101640000400009008BD0000001002400C4810B5D6
:101650000A4901604FF4E1314160002181600C22B0
:10166000C160C0E904128161C161FFF7E3FE002897
:1016700003D0BDE81040FEF722BE10BD0038014087
:101680003C000020FEE770470907090E002806DA33
:1016900000F00F0000F1E02080F8141D704700F109
:1016A000E02080F80014704770477047FFF700BBD8
:1016B00030B58FB028216846FEF74BFD14210AA8EB
:1016C000FEF747FD01210804CDE900100024029433
:1016D00002250491CDE907504FF4E01009906846C7
:1016E000FFF788FC0F20CDE90A056802CDE90C4020
:1016F00002210AA80E94FFF771FB0FB030BD000065
:101700000D48016841F00101016041680B4A114038
:10171000416001680A4A11400160016821F480219A
:101720000160416821F4FE0141604FF41F018160B6
:101730000449C00308607047001002400000FFF831
:10174000FFFFF6FE08ED00E010B5406A0021C185FC
:10175000C184FFF7E5FD10BD0168CA6822F49072EC
:10176000CA6001684A6922F001024A61202180F8BA
:101770003A10704710B590F83A10222901D0022093
:1017800010BD8168B1F5805F11D001690029016841
:101790001FD0496801F07F03816A4A1C82620B7086
:1017A000C18D491E0904090CC18518D02BE00269BE
:1017B000816A002A0268526805D0D2B20A80816A22
:1017C000491C8162ECE7C2F308020A80816A891C25
:1017D000F7E74A68816A4B1C83620A70E0E7016898
:1017E000CA6822F02002CA600168CA6822F48072C6
:1017F000CA6001684A6922F001024A61202180F82A
:101800003A10FFF789FE002010BD00002DE9F041DD
:10181000044600680169E26821F440511143016106
:101820002169A0680843616908432168CA6841F2D8
:101830000C639A430243CA6020684169A26921F49B
:101840004071114341614C49206864253226884229
:101850003CD1FFF789FB00EBC00101EB0010616890
:101860008900B0FBF1F7FFF77FFB00EBC00101EB54
:1018700000106168B0468900B0FBF1F0B0FBF5F0F4
:101880006FF01801484307EB800106EB0110B0FB35
:10189000F5F000F0F006FFF767FB00EBC00101EB8D
:1018A000001061688900B0FBF1F0B0FBF5F006EBC9
:1018B0000016FFF759FB00EBC00101EB0010616857
:1018C0008900B0FBF1F7FFF74FFB3BE0FFF73CFB74
:1018D00000EBC00101EB001061688900B0FBF1F77B
:1018E000FFF732FB00EBC00101EB00106168B0466E
:1018F0008900B0FBF1F0B0FBF5F06FF01801484340
:1019000007EB800106EB0110B0FBF5F000F0F006EC
:10191000FFF71AFB00EBC00101EB001061688900C2
:10192000B0FBF1F0B0FBF5F006EB0016FFF70CFB97
:1019300000EBC00101EB001061688900B0FBF1F71A
:10194000FFF702FB00EBC00101EB001061688900AA
:10195000B0FBF1F0B0FBF5F06FF01801484307EB76
:10196000800108EB0110B0FBF5F0216800F00F00DA
:1019700030448860BDE8F0810038014090F83910AB
:10198000212901D0022070478168B1F5805F016A8A
:101990000BD04A1C0262026809785160C18C491E52
:1019A0000904090CC1840ED017E009880268C1F34C
:1019B0000801516001690029016A02D0491C0162D5
:1019C000ECE7891CFBE70168CA6822F08002CA6064
:1019D0000068C16841F04001C160002070472DE9F6
:1019E000F041984617460E460446069D1DE0681CC9
:1019F0001BD02DB1FFF756F9A0EB0800A84214D96F
:101A00002068C16821F4D071C1602068416921F06B
:101A100001014161202084F8390084F83A00002057
:101A200084F838000320BDE8F0812068006836EAB9
:101A3000000004D00020B842D9D00020F3E70120F4
:101A4000F9E700000148FFF76DBC00003C000020F2
:101A50000148FEF7ADBD000014000020FEE70000C5
:101A60000FB4054B10B503A9044A029800F018F80A
:101A700010BC5DF814FB0000611D00081000002080
:101A800002E008C8121F08C1002AFAD17047704747
:101A9000002001E001C1121F002AFBD170470000A5
:101AA0002DE9FF4F8DB09B460F460446002606E009
:101AB00025280BD05A460F999047641C761C207835
:101AC0000028F5D111B03046BDE8F08F0025A846BA
:101AD0000122984900E0054314F8013F203B02FA37
:101AE00003F00842F7D120782E2817D114F8010FFF
:101AF00045F004052A280ED06FF02F022078A0F1BF
:101B0000300109290AD808EB880102EB410100EBFA
:101B10000108641CF2E757F8048B641C20786C28D9
:101B20000DD004DC4C2812D06A2811D104E07428AE
:101B30000DD07A280CD10AE045F4001507E0617851
:101B400045F48015814202D1641C05F58015641CA2
:101B50002278692A45D008DC002AB3D0582A69D0F7
:101B6000632A10D0642A08D13BE0702A67D0732A18
:101B700013D0752A5CD0782A5CD010465A460F994B
:101B80009047761CD3E017F8040B8DF80000002076
:101B90008DF80100E946012003E057F8049B4FF05F
:101BA000FF3069074FF0000501D40AE06D1C454580
:101BB0000DDA8542FADB19F805100029F6D106E0A6
:101BC0006D1C8542FCDB19F805100029F8D12E4464
:101BD00004E019F8010B5A460F9990476D1EF8D290
:101BE000A5E00A200021CDE90801C5F30250022832
:101BF0000DD001CFC117031E71F100030DDA4FF0B4
:101C0000000CD0EB0C006CEB01012D2308E0FF1D54
:101C100027F00707F7E80201EDE72B0504D52B2392
:101C20008DF8283001233BE0EB0739D02023F7E77C
:101C30000A2000E010200021CDE9080107E0102073
:101C4000002145F00405CDE908014FF00808C5F36F
:101C5000025002280FD001CF00214FF0000A2B07BD
:101C60001FD5702A0DD0DDE908C38CF0100C5CEA9A
:101C7000030C0CD015E0FF1D27F00707F7E8020161
:101C8000EBE740228DF828204FF0010A0BE050EAE4
:101C9000010306D030238DF828308DF82920022347
:101CA0009A46582A04D024A20DF120090B9209E08B
:101CB00026A2F9E7DDE90823FEF756FA0B9B9B5CA9
:101CC00009F8013D50EA0102F4D1ADEB09002030E2
:101CD0000890680701D44FF001080899884502DD93
:101CE000A8EB010000E000208046002506E00AA8DD
:101CF0005A46405D0F9990476D1C761C5545F6DBA2
:101D000004E030205A460F999047761CB8F1000144
:101D1000A8F10108F5DC05E019F8010B5A460F9906
:101D20009047761C0899481E08900029F4DC641C32
:101D3000C5E600000928010030313233343536372A
:101D40003839616263646566000000003031323307
:101D500034353637383941424344454600000000A7
:101D600013B54FF6FF73012269460248FFF7D5FB12
:101D700000981CBD3C0000201CB50FA1D1E900015A
:101D8000CDE90001FEF79CFFFFF792FCFFF748FC4E
:101D9000FFF722FCFFF75AFCFEF73AFA40F2222442
:101DA0004FF47A756B46082221460020FEF758FA58
:101DB0002846FEF787FEF5E701020304050607083B
:101DC00000000000000000000102030406070809EB
:101DD0000000000001020304F81D000800000020BC
:101DE00014000000801A00080C1E000814000020D7
:101DF0006C040000901A00080100000010000000B0
:0C1E00000000000000A24A0400000000E6
:04000005080000ED02
:00000001FF
